:020000040800F2
:1000000000000120E9330008FD2B0008012C000846
:10001000052C0008092C00080D2C00080000000029
:10002000000000000000000000000000112C00088B
:10003000152C000800000000192C00081D2C0008D9
:1000400039340008393400083934000839340008DC
:1000500039340008393400083934000839340008CC
:1000600039340008393400083934000839340008BC
:1000700039340008393400083934000839340008AC
:100080003934000839340008393400080000000011
:1000900000000000000000000000000039340008EB
:1000A000393400083934000839340008393400087C
:1000B000393400083934000839340008393400086C
:1000C000393400083934000839340008393400085C
:1000D00039340008393400083934000800000000C1
:1000E00039340008393400083934000800000000B1
:1000F000000000000000000000000000393400088B
:100100000000000039340008393400083934000890
:1001100000000000000000000000000000000000DF
:1001200039340008393400083934000839340008FB
:10013000393400080000000000000000000000004A
:10014000000000000000000000000000393400083A
:1001500039340008393400083934000839340008CB
:1001600039340008393400080000000000000000A5
:10017000000000000000000000000000000000007F
:1001800000000000393400080000000000000000FA
:0401900039340008F6
:1001940053B94AB9002908BF00281CBF4FF0FF31EA
:1001A4004FF0FF3000F00CB8ADF1080C6DE904CE4F
:1001B40003F0D2F9DDF804E0DDE9022304B070476E
:1001C400704700BF10B5054C237833B9044B13B105
:1001D4000448AFF300800123237010BD10000020F9
:1001E400000000001838000808B5034B1BB1034990
:1001F4000348AFF3008008BD000000001400002095
:100204001838000884B0114B00220192196B41F098
:1002140001011963196B01F0010101910199029225
:10022400196B41F002011963196B01F0020102918B
:10023400029903921A6B42F004021A631B6B03F0D7
:1002440004030393039B04B0704700BF00380240CB
:1002540008B10F2900D97047032AFCD80FFA81FC92
:1002640010B44FEA4C0C0468032303FA0CF324EA99
:1002740003040460046802FA0CF222430260C268B8
:100284005DF8044B22EA0302C26042684FF0010C9D
:100294000CFA01F122EA01024260826822EA0303B5
:1002A4008360704770B59DF810C09DF814E008B1E4
:1002B4000F2900D970BD032AFCD8022BFAD8BCF14F
:1002C400010FF7D80CFA01F40FFA81FC05684FEA24
:1002D4004C0C032602FA0CF203FA0CF30EFA0CFE91
:1002E40006FA0CFC25EA0C05056005682A43026041
:1002F400C26822EA0C02C260C2681343C360436846
:1003040001228A4023EA0203436043682343436093
:10031400836823EA0C03836083684EEA03038360E3
:1003240070BD00BF10B483B072B600220D490192B3
:10033400086C40F001000864096C4FF0804301F040
:10034400010101914FF0FF300121019C1A605A60B4
:100354009A62D862DA605961196062B603B05DF8D6
:10036400044B70470038024090B10A4A0A4B1268A5
:100374004FF08041A3FB023210B492094C6A00FB97
:1003840002F24B6A1B1B9342FBD35DF8044B70478C
:10039400704700BF08000020D34D621001600021A7
:1003A40062F3070163F30F219DF800309DF81020DC
:1003B400027463F317419DF8043063F31F61029BD9
:1003C400416003995B08C0E90231704730B50446C7
:1003D400002583B0017900682B460122CDE9005540
:1003E400FFF760FFA179206801222B46CDE9005573
:1003F400FFF758FFE179206801222B46CDE900552B
:10040400FFF750FF617920682B462A46CDE9005555
:10041400FFF748FF237921680122103302FA03F31E
:100424008B61A37902FA03F38B61237C934209D98C
:10043400023B012B01D903B030BDE3799A408A61B4
:1004440003B030BDE37910339A408A6103B030BD04
:10045400827901680123103293408B61704700BF99
:1004640070B5C57990F804E090F805C002680123DE
:100474000E0603FA05F005F1100458BF0EF110053D
:1004840003FA0CFC03FA04F454BFAB4003FA0EF372
:1004940093619061946113695FFA8CFC0CEA030325
:1004A4005B004D06DBB26CD40EF110060125B5409D
:1004B40095619061946115690CEA05052B435B0015
:1004C4008E06DBB276D40EF110060125B540956197
:1004D4009061946115690CEA05052B435B00CD0618
:1004E400DBB262D40EF110060125B540956190612E
:1004F400946115690CEA05052B435B000E07DBB21A
:100504004ED40EF110060125B540956190619461B9
:1005140015690CEA05052B435B004D07DBB23AD4A1
:100524000EF110060125B54095619061946115693D
:100534000CEA050589012B435B000E06DBB2CDB244
:1005440024D40EF110060121B140916190619461AF
:1005540011690CEA01010B43690658BF0EF1100E34
:10056400012101FA0EF191619061946112695B00BD
:10057400DBB20CEA020C43EA0C00400000F0FE007F
:1005840070BD012505FA0EF5956192E7012101FA86
:100594000EF19161DAE7012505FA0EF59561C4E7DC
:1005A400012505FA0EF59561B0E7012505FA0EF56A
:1005B40095619CE7012505FA0EF5956188E700BF72
:1005C40084B02DE9F043D24C8BB012AD4FF020092A
:1005D40085E80F00C4F818900520FFF7C5FE4FF416
:1005E4000013A3611420FFF7BFFEC4F818909620EF
:1005F400FFF7BAFEAE46BEE80F00EC46ACE80F00CB
:100604004FF48016DEF80030CCF800306F46A66157
:100614000FCF05AD0FC53B682B60EF2105A8FFF791
:100624001FFF0DF1480EBEE80F00EC46ACE80F00CA
:10063400DEF80030CCF800306F46A6610FCF05AD70
:100644000FC53B682B60EB2105A80DF14808FFF7A7
:1006540007FFB8E80F00EE46AEE80F001025D8F803
:100664000030CEF80030EC46A561BCE80F0005AFC1
:100674000FC7DCF800303B6014210DEB01000DF1D5
:100684004808FFF7EDFEB8E80F00EE46AEE80F00AD
:10069400D8F80030CEF80030EC46A661BCE80F0074
:1006A40005AF0FC7DCF800303B60FE2105A80DF153
:1006B4004808FFF7D5FEB8E80F00EE46AEE80F0095
:1006C400D8F80030CEF80030EC46A661BCE80F0044
:1006D40005AF0FC7DCF800303B60EF2105A80DF132
:1006E4004808FFF7BDFEB8E80F00EE46AEE80F007D
:1006F400D8F80030CEF80030EC46A661BCE80F0014
:1007040005AF0FC7DCF800303B60EB2105A80DF105
:100714004808FFF7A5FEB8E80F00EE46AEE80F0064
:10072400D8F80030CEF80030EC46A561BCE80F00E4
:1007340005AF0FC7DCF800303B6014210DEB01005E
:100744000DF14808FFF78CFEB8E80F00EE46AEE85E
:100754000F00D8F80030CEF80030EC46A661BCE8B3
:100764000F0005AF0FC7DCF800303B60842105A8FB
:100774000DF14808FFF774FEB8E80F00EE46AEE846
:100784000F00D8F80030CEF80030EC46A561BCE884
:100794000F0005AF0FC7DCF800303B60402105A80F
:1007A4000DF14808FFF75CFEB8E80F00EE46AEE82E
:1007B4000F00D8F80030CEF80030EC46A661BCE853
:1007C4000F0005AF0FC7DCF800303B60852105A89A
:1007D4000DF14808FFF744FEB8E80F00EE46AEE816
:1007E4000F00D8F80030CEF80030EC46A561BCE824
:1007F4000F0005AF0FC7DCF800303B60FF2105A8F0
:100804000DF14808FFF72CFEB8E80F00EE46AEE8FD
:100814000F00D8F80030CEF80030EC46A661BCE8F2
:100824000F0005AF0FC7DCF800303B60862105A838
:100834000DF14808FFF714FEB8E80F00EE46AEE8E5
:100844000F00D8F80030CEF80030EC46A561BCE8C3
:100854000F0005AF0FC7DCF800303B60FF2105A88F
:100864000DF14808FFF7FCFDB8E80F00EE46AEE8CE
:100874000F00D8F80030CEF80030EC46A661BCE892
:100884000F0005AF0FC7DCF800303B60872105A8D7
:100894000DF14808FFF7E4FDB8E80F00EE46AEE8B6
:1008A4000F00D8F80030CEF80030EC46A561BCE863
:1008B4000F0005AF0FC7DCF800303B60FF2105A82F
:1008C4000DF14808FFF7CCFDB8E80F00EE46AEE89E
:1008D4000F00D8F80030CEF80030EC46A661BCE832
:1008E4000F0005AF0FC7DCF800303B60882105A876
:1008F4000DF14808FFF7B4FDB8E80F00EE46AEE886
:100904000F00D8F80030CEF80030EC46A56101E0C5
:1009140000000240BCE80F0005AF0FC7DCF8003050
:100924003B600A2105A80DF14808FFF799FDB8E8D6
:100934000F00EE46AEE80F00D8F80030CEF80030D5
:10094400EC46A661BCE80F0005AF0FC7DCF8003029
:100954003B60892105A80DF14808FFF781FDB8E83F
:100964000F00EE46AEE80F00D8F80030CEF80030A5
:10097400EC46A561BCE80F0005AF0FC7DCF80030FA
:100984003B60212105A80DF14808FFF769FDB8E88F
:100994000F00EE46AEE80F00D8F80030CEF8003075
:1009A400EC46A661BCE80F0005AF0FC7DCF80030C9
:1009B4003B608A2105A80DF14808FFF751FDB8E80E
:1009C4000F00EE46AEE80F00D8F80030CEF8003045
:1009D400EC46A561BCE80F0005AF0FC7DCF800309A
:1009E4003B60002105A80DF14808FFF739FDB8E880
:1009F4000F00EE46AEE80F00D8F80030CEF8003015
:100A0400EC46A661BCE80F0005AF0FC7DCF8003068
:100A14003B608B2105A80DF14808FFF721FDB8E8DC
:100A24000F00EE46AEE80F00D8F80030CEF80030E4
:100A3400EC46A561BCE80F0005AF0FC7DCF8003039
:100A44003B60802105A80DF14808FFF709FDB8E8CF
:100A54000F00EE46AEE80F00D8F80030CEF80030B4
:100A6400EC46A661BCE80F0005AF0FC7DCF8003008
:100A74003B608C2105A80DF14808FFF7F1FCB8E8AC
:100A84000F00EE46AEE80F00D8F80030CEF8003084
:100A9400EC46A561BCE80F0005AF0FC7DCF80030D9
:100AA4003B60012105A80DF14808FFF7D9FCB8E81F
:100AB4000F00EE46AEE80F00D8F80030CEF8003054
:100AC400EC46A661BCE80F0005AF0FC7DCF80030A8
:100AD4003B608D2105A80DF14808FFF7C1FCB8E87B
:100AE4000F00EE46AEE80F00D8F80030CEF8003024
:100AF400EC46A561BCE80F0005AF0FC7DCF8003079
:100B04003B60012105A80DF14808FFF7A9FCB8E8EE
:100B14000F00EE46AEE80F00D8F80030CEF80030F3
:100B2400EC46A661BCE80F0005AF0FC7DCF8003047
:100B34003B608E2105A80DF14808FFF791FCB8E849
:100B44000F00EE46AEE80F00D8F80030CEF80030C3
:100B5400EC46A561BCE80F0005AF0FC7DCF8003018
:100B64003B60FF2105A80DF14808FFF779FCB8E8C0
:100B74000F00EE46AEE80F00D8F80030CEF8003093
:100B8400EC46A661BCE80F0005AF0FC7DCF80030E7
:100B94003B608F2105A80DF14808FFF761FCB8E818
:100BA4000F00EE46AEE80F00D8F80030CEF8003063
:100BB400EC46A561BCE80F0005AF0FC7DCF80030B8
:100BC4003B60FF2105A80DF14808FFF749FCB8E890
:100BD4000F00EE46AEE80F00D8F80030CEF8003033
:100BE400EC46A661BCE80F0005AF0FC7DCF8003087
:100BF4003B60B62105A80DF14808FFF731FCB8E8C1
:100C04000F00EE46AEE80F00D8F80030CEF8003002
:100C1400EC46A561BCE80F0005AF0FC7DCF8003057
:100C24003B60002105A80DF14808FFF719FCB8E85E
:100C34000F00EE46AEE80F00D8F80030CEF80030D2
:100C4400EC46A561BCE80F0005AF0FC7DCF8003027
:100C54003B60494605A80DF14808FFF701FCB8E8D8
:100C64000F00EE46AEE80F00D8F80030CEF80030A2
:100C7400EC46A661BCE80F0005AF0FC7DCF80030F6
:100C84003B603A2105A80DF14808FFF7E9FBB8E8F5
:100C94000F00EE46AEE80F00D8F80030CEF8003072
:100CA400EC46A561BCE80F0005AF0FC7DCF80030C7
:100CB4003B60052105A80DF14808FFF7D1FBB8E812
:100CC4000F00EE46AEE80F00D8F80030CEF8003042
:100CD400EC46A661BCE80F0005AF0FC7DCF8003096
:100CE4003B60902105A80DF14808FFF7B9FBB8E86F
:100CF4000F00EE46AEE80F00D8F80030CEF8003012
:100D0400EC46A561BCE80F0005AF0FC7DCF8003066
:100D14003B60082105A80DF14808FFF7A1FBB8E8DE
:100D24000F00EE46AEE80F00D8F80030CEF80030E1
:100D3400EC46A561BCE80F0005AF0FC7DCF8003036
:100D44003B60082105A80DF14808FFF789FBB8E8C6
:100D54000F00EE46AEE80F00D8F80030CEF80030B1
:100D6400EC46A561BCE80F0005AF0FC7DCF8003006
:100D74003B60082105A80DF14808FFF771FBB8E8AE
:100D84000F00EE46AEE80F00D8F80030CEF8003081
:100D9400EC46A561BCE80F0005AF0FC7DCF80030D6
:100DA4003B60082105A80DF14808FFF759FBB8E896
:100DB4000F00EE46AEE80F00D8F80030CEF8003051
:100DC400EC46A661BCE80F0005AF0FC7DCF80030A5
:100DD4003B60BD2105A80DF14808FFF741FBB8E8C9
:100DE4000F00EE46AEE80F00D8F80030CEF8003021
:100DF400EC46A561BCE80F0005AF0FC7DCF8003076
:100E04003B60062105A80DF14808FFF729FBB8E867
:100E14000F00EE46AEE80F00D8F80030CEF80030F0
:100E2400EC46A661BCE80F0005AF0FC7DCF8003044
:100E34003B60BC2105A80DF14808FFF711FBB8E899
:100E44000F00EE46AEE80F00D8F80030CEF80030C0
:100E5400EC46A561BCE80F0005AF0FC7DCF8003015
:100E64003B60002105A80DF14808FFF7F9FAB8E83E
:100E74000F00EE46AEE80F00D8F80030CEF8003090
:100E8400EC46A661BCE80F0005AF0FC7DCF80030E4
:100E94003B60FF2105A80DF14808FFF7E1FAB8E827
:100EA4000F00EE46AEE80F00D8F80030CEF8003060
:100EB400EC46A561BCE80F0005AF0FC7DCF80030B5
:100EC4003B60602105A80DF14808FFF7C9FAB8E8AE
:100ED4000F00EE46AEE80F00D8F80030CEF8003030
:100EE400EC46A561BCE80F0005AF0FC7DCF8003085
:100EF4003B60012105A80DF14808FFF7B1FAB8E8F5
:100F04000F00EE46AEE80F00D8F80030CEF80030FF
:100F1400EC46A561BCE80F0005AF0FC7DCF8003054
:100F24003B60042105A80DF14808FFF799FAB8E8D9
:100F34000F00EE46AEE80F00D8F80030CEF80030CF
:100F4400EC46A661BCE80F0005AF0FC7DCF8003023
:100F54003B60C32105A80DF14808FFF781FAB8E802
:100F64000F00EE46AEE80F00D8F80030CEF800309F
:100F7400EC46A561BCE80F0005AF0FC7DCF80030F4
:100F84003B60132105A80DF14808FFF769FAB8E89A
:100F94000F00EE46AEE80F00D8F80030CEF800306F
:100FA400EC46A661BCE80F0005AF0FC7DCF80030C3
:100FB4003B60C42105A80DF14808FFF751FAB8E8D1
:100FC4000F00EE46AEE80F00D8F80030CEF800303F
:100FD400EC46A561BCE80F0005AF0FC7DCF8003094
:100FE4003B60132105A80DF14808FFF739FAB8E86A
:100FF4000F00EE46AEE80F00D8F80030CEF800300F
:10100400EC46A661BCE80F0005AF0FC7DCF8003062
:101014003B60C92105A80DF14808FFF721FAB8E89B
:101024000F00EE46AEE80F00D8F80030CEF80030DE
:10103400EC46A561BCE80F0005AF0FC7DCF8003033
:101044003B60222105A80DF14808FFF709FAB8E82A
:101054000F00EE46AEE80F00D8F80030CEF80030AE
:10106400EC46A661BCE80F0005AF0FC7DCF8003002
:101074003B60BE2105A80DF14808FFF7F1F9B8E877
:101084000F00EE46AEE80F00D8F80030CEF800307E
:10109400EC46A561BCE80F0005AF0FC7DCF80030D3
:1010A4003B60112105A80DF14808FFF7D9F9B8E80C
:1010B4000F00EE46AEE80F00D8F80030CEF800304E
:1010C400EC46A661BCE80F0005AF0FC7DCF80030A2
:1010D4003B60E12105A80DF14808FFF7C1F9B8E824
:1010E4000F00EE46AEE80F00D8F80030CEF800301E
:1010F400EC46A561BCE80F0005AF0FC7DCF8003073
:101104003B60294605A80DF14808FFF7A9F9B8E89E
:101114000F00EE46AEE80F00D8F80030CEF80030ED
:10112400EC46A561BCE80F0005AF0FC7DCF8003042
:101134003B600E2105A80DF14808FFF791F9B8E8C6
:101144000F00EE46AEE80F00D8F80030CEF80030BD
:10115400EC46A661BCE80F0005AF0FC7DCF8003011
:101164003B60DF2105A80DF14808FFF779F9B8E8DD
:101174000F00EE46AEE80F00D8F80030CEF800308D
:10118400EC46A561BCE80F0005AF0FC7DCF80030E2
:101194003B60212105A80DF14808FFF761F9B8E883
:1011A4000F00EE46AEE80F00D8F80030CEF800305D
:1011B400EC46A561BCE80F0005AF0FC7DCF80030B2
:1011C4003B600C2105A80DF14808FFF749F9B8E880
:1011D4000F00EE46AEE80F00D8F80030CEF800302D
:1011E400EC46A561BCE80F0005AF0FC7DCF8003082
:1011F4003B60022105A80DF14808FFF731F9B8E872
:101204000F00EE46AEE80F00D8F80030CEF80030FC
:10121400EC46A661BCE80F0005AF0FC7DCF8003050
:101224003B60F02105A80DF14808FFF719F9B8E86B
:101234000F00EE46AEE80F00D8F80030CEF80030CC
:10124400EC46A561BCE80F0005AF0FC7DCF8003021
:101254003B60452105A80DF14808FFF701F9B8E8FE
:101264000F00EE46AEE80F00D8F80030CEF800309C
:10127400EC46A561BCE80F0005AF0FC7DCF80030F1
:101284003B60092105A80DF14808FFF7E9F8B8E823
:101294000F00EE46AEE80F00D8F80030CEF800306C
:1012A400EC46A561BCE80F0005AF0FC7DCF80030C1
:1012B4003B60082105A80DF14808FFF7D1F8B8E80C
:1012C4000F00EE46AEE80F00D8F80030CEF800303C
:1012D400EC46A561BCE80F0005AF0FC7DCF8003091
:1012E4003B60082105A80DF14808FFF7B9F8B8E8F4
:1012F4000F00EE46AEE80F00D8F80030CEF800300C
:10130400EC46A561BCE80F0005AF0FC7DCF8003060
:101314003B60262105A80DF14808FFF7A1F8B8E8BD
:101324000F00EE46AEE80F00D8F80030CEF80030DB
:10133400EC46A561BCE80F0005AF0FC7DCF8003030
:101344003B602A2105A80DF14808FFF789F8B8E8A1
:101354000F00EE46AEE80F00D8F80030CEF80030AB
:10136400EC46A661BCE80F0005AF0FC7DCF80030FF
:101374003B60F12105A80DF14808FFF771F8B8E8C2
:101384000F00EE46AEE80F00D8F80030CEF800307B
:10139400EC46A561BCE80F0005AF0FC7DCF80030D0
:1013A4003B60432105A80DF14808FFF759F8B8E858
:1013B4000F00EE46AEE80F00D8F80030CEF800304B
:1013C400EC46A561BCE80F0005AF0FC7DCF80030A0
:1013D4003B60702105A80DF14808FFF741F8B8E813
:1013E4000F00EE46AEE80F00D8F80030CEF800301B
:1013F400EC46A561BCE80F0005AF0FC7DCF8003070
:101404003B60722105A80DF14808FFF729F8B8E8F8
:101414000F00EE46AEE80F00D8F80030CEF80030EA
:10142400EC46A561BCE80F0005AF0FC7DCF800303F
:101434003B60362105A80DF14808FFF711F8B8E81C
:101444000F00EE46AEE80F00D8F80030CEF80030BA
:10145400EC46A561BCE80F0005AF0FC7DCF800300F
:101464003B60372105A80DF14808FEF7F9FFB8E8FD
:101474000F00EE46AEE80F00D8F80030CEF800308A
:10148400EC46A561BCE80F0005AF0FC7DCF80030DF
:101494003B606F2105A80DF14808FEF7E1FFB8E8AD
:1014A4000F00EE46AEE80F00D8F80030CEF800305A
:1014B400EC46A661BCE80F0005AF0FC7DCF80030AE
:1014C4003B60F22105A80DF14808FEF7C9FFB8E812
:1014D4000F00EE46AEE80F00D8F80030CEF800302A
:1014E400EC46A561BCE80F0005AF0FC7DCF800307F
:1014F4003B60452105A80DF14808FEF7B1FFB8E8A7
:101504000F00EE46AEE80F00D8F80030CEF80030F9
:10151400EC46A561BCE80F0005AF0FC7DCF800304E
:101524003B60092105A80DF14808FEF799FFB8E8CA
:101534000F00EE46AEE80F00D8F80030CEF80030C9
:10154400EC46A561BCE80F0005AF0FC7DCF800301E
:101554003B60082105A80DF14808FEF781FFB8E8B3
:101564000F00EE46AEE80F00D8F80030CEF8003099
:10157400EC46A561BCE80F0005AF0FC7DCF80030EE
:101584003B60082105A80DF14808FEF769FFB8E89B
:101594000F00EE46AEE80F00D8F80030CEF8003069
:1015A400EC46A561BCE80F0005AF0FC7DCF80030BE
:1015B4003B60262105A80DF14808FEF751FFB8E865
:1015C4000F00EE46AEE80F00D8F80030CEF8003039
:1015D400EC46A561BCE80F0005AF0FC7DCF800308E
:1015E4003B602A2105A80DF14808FEF739FFB8E849
:1015F4000F00EE46AEE80F00D8F80030CEF8003009
:10160400EC46A661BCE80F0005AF0FC7DCF800305C
:101614003B60F32105A80DF14808FEF721FFB8E867
:101624000F00EE46AEE80F00D8F80030CEF80030D8
:10163400EC46A561BCE80F0005AF0FC7DCF800302D
:101644003B60432105A80DF14808FEF709FFB8E8FF
:101654000F00EE46AEE80F00D8F80030CEF80030A8
:10166400EC46A561BCE80F0005AF0FC7DCF80030FD
:101674003B60702105A80DF14808FEF7F1FEB8E8BB
:101684000F00EE46AEE80F00D8F80030CEF8003078
:10169400EC46A561BCE80F0005AF0FC7DCF80030CD
:1016A4003B60722105A80DF14808FEF7D9FEB8E8A1
:1016B4000F00EE46AEE80F00D8F80030CEF8003048
:1016C400EC46A561BCE80F0005AF0FC7DCF800309D
:1016D4003B60362105A80DF14808FEF7C1FEB8E8C5
:1016E4000F00EE46AEE80F00D8F80030CEF8003018
:1016F400EC46A561BCE80F0005AF0FC7DCF800306D
:101704003B60372105A80DF14808FEF7A9FEB8E8AB
:101714000F00EE46AEE80F00D8F80030CEF80030E7
:10172400EC46A561BCE80F0005AF0FC7DCF800303C
:101734003B606F2105A80DF14808FEF791FEB8E85B
:101744000F00EE46AEE80F00D8F80030CEF80030B7
:10175400EC46A661BCE80F0005AF0FC7DCF800300B
:101764003B60ED2105A80DF14808FEF779FEB8E8C5
:101774000F00EE46AEE80F00D8F80030CEF8003087
:10178400EC46A561BCE80F0005AF0FC7DCF80030DC
:101794003B601B2105A80DF14808FEF761FEB8E87F
:1017A4000F00EE46AEE80F00D8F80030CEF8003057
:1017B400EC46A561BCE80F0005AF0FC7DCF80030AC
:1017C4003B600B2105A80DF14808FEF749FEB8E877
:1017D4000F00EE46AEE80F00D8F80030CEF8003027
:1017E400EC46A661BCE80F0005AF0FC7DCF800307B
:1017F4003B60AE2105A80DF14808FEF731FEB8E8BC
:101804000F00EE46AEE80F00D8F80030CEF80030F6
:10181400EC46A561BCE80F0005AF0FC7DCF800304B
:101824003B60772105A80DF14808FEF719FEB8E8DA
:101834000F00EE46AEE80F00D8F80030CEF80030C6
:10184400EC46A661BCE80F0005AF0FC7DCF800301A
:101854003B60CD2105A80DF14808FEF701FEB8E86C
:101864000F00EE46AEE80F00D8F80030CEF8003096
:10187400EC46A561BCE80F0005AF0FC7DCF80030EB
:101884003B60632105A80DF14808FEF7E9FDB8E8BF
:101894000F00EE46AEE80F00D8F80030CEF8003066
:1018A400EC46A661BCE80F0005AF0FC7DCF80030BA
:1018B4003B60702105A8FEF7D3FD0DF1480EBEE88C
:1018C4000F00EC46ACE80F00DEF80030CCF8003036
:1018D4006F46A5610FCF05AE0FC63B683360072185
:1018E40005A8FEF7BDFD0DF1480EBEE80F00EC465D
:1018F400ACE80F00DEF80030CCF800306F46A5618C
:101904000FCF05AE0FC63B683360072105A8FEF76D
:10191400A7FD0DF1480EBEE80F00EC46ACE80F0041
:10192400DEF80030CCF800306F46A5610FCF05AE6D
:101934000FC63B683360042105A8FEF791FD0DF145
:10194400480EBEE80F00EC46ACE80F00DEF80030AD
:10195400CCF800306F46A5610FCF05AE0FC63B68CB
:1019640033600E2105A8FEF77BFD0DF1480EBEE89D
:101974000F00EC46ACE80F00DEF80030CCF8003085
:101984006F46A5610FCF05AE0FC63B6833600F21CC
:1019940005A8FEF765FD0DF1480EBEE80F00EC4604
:1019A400ACE80F002546DEF80030CCF800301024F7
:1019B400AC616F460FCF05AE0FC63B68336009219B
:1019C40005A8FEF74DFD0DF1480EBEE80F00EC46EC
:1019D400ACE80F00DEF80030CCF800306F46AC61A4
:1019E4000FCF05AE0FC63B683360072105A8FEF78D
:1019F40037FD0DF1480EBEE80F00EC46ACE80F00D1
:101A0400DEF80030CCF800306F46AC610FCF05AE85
:101A14000FC63B683360082105A8FEF721FD0DF1D0
:101A2400480EBEE80F00EC46ACE80F00DEF80030CC
:101A3400CCF800306F46AC610FCF05AE0FC63B68E3
:101A44003360032105A8FEF70BFD0DF1480EBEE837
:101A54000F00EC46ACE80F004FF48018DEF80030BD
:101A6400CCF800306F46C5F818800FCF05AE0FC60E
:101A74003B683360E82105A8FEF7F2FC0DF1480E3F
:101A8400BEE80F00EC46ACE80F00DEF80030CCF8FE
:101A940000306F46AC610FCF05AE0FC63B683360B4
:101AA400342105A8FEF7DCFC0DF1480EBEE80F005A
:101AB400EC46ACE80F00DEF80030CCF800306F469E
:101AC400C5F818800FCF05AE0FC63B68336062219E
:101AD40005A8FEF7C5FC0DF1480EBEE80F00EC4664
:101AE400ACE80F00DEF80030CCF800306F46AC6193
:101AF4000FCF05AE0FC63B683360182105A8FEF76B
:101B0400AFFC0DF1480EBEE80F00EC46ACE80F0048
:101B1400DEF80030CCF800306F46AC610FCF05AE74
:101B24000FC63B6833600D2105A8FEF799FC0DF143
:101B3400480EBEE80F00EC46ACE80F00DEF80030BB
:101B4400CCF800306F46AC610FCF05AE0FC63B68D2
:101B54003360712105A8FEF783FC0DF1480EBEE841
:101B64000F00EC46ACE80F00DEF80030CCF8003093
:101B74006F46AC610FCF05AE0FC63B683360ED21F5
:101B840005A8FEF76DFC0DF1480EBEE80F00EC460B
:101B9400ACE80F00DEF80030CCF800306F46AC61E2
:101BA4000FCF05AE0FC63B683360702105A8FEF762
:101BB40057FC0DF1480EBEE80F00EC46ACE80F00F0
:101BC400DEF80030CCF800306F46AC610FCF05AEC4
:101BD4000FC63B683360702105A8FEF741FC0DF188
:101BE400480EBEE80F00EC46ACE80F00DEF800300B
:101BF400CCF800306F46AC610FCF05AE0FC63B6822
:101C04003360182105A8FEF72BFC0DF1480EBEE841
:101C14000F00EC46ACE80F00DEF80030CCF80030E2
:101C24006F46AC610FCF05AE0FC63B6833600F2122
:101C340005A8FEF715FC0DF1480EBEE80F00EC46B2
:101C4400ACE80F00DEF80030CCF800306F46AC6131
:101C54000FCF05AE0FC63B683360712105A8FEF7B0
:101C6400FFFB0DF1480EBEE80F00EC46ACE80F0098
:101C7400DEF80030CCF800306F46AC610FCF05AE13
:101C84000FC63B683360EF2105A8FEF7E9FB0DF1B1
:101C9400480EBEE80F00EC46ACE80F00DEF800305A
:101CA400CCF800306F46AC610FCF05AE0FC63B6871
:101CB4003360702105A8FEF7D3FB0DF1480EBEE892
:101CC4000F00EC46ACE80F00DEF80030CCF8003032
:101CD4006F46AC610FCF05AE0FC63B683360702111
:101CE40005A8FEF7BDFB0DF1480EBEE80F00EC465B
:101CF400ACE80F00DEF80030CCF800306F46C5F8D1
:101D040018800FCF05AE0FC63B683360632105A86A
:101D1400FEF7A6FB0DF1480EBEE80F00EC46ACE85A
:101D24000F00DEF80030CCF800306F46AC610FCF06
:101D340005AE0FC63B683360182105A8FEF790FB7B
:101D44000DF1480EBEE80F00EC46ACE80F00DEF8DB
:101D54000030CCF800306F46AC610FCF05AE0FC633
:101D64003B683360112105A8FEF77AFB0DF1480E9C
:101D7400BEE80F00EC46ACE80F00DEF80030CCF80B
:101D840000306F46AC610FCF05AE0FC63B683360C1
:101D9400712105A8FEF764FB0DF1480EBEE80F00A3
:101DA400EC46ACE80F00DEF80030CCF800306F46AB
:101DB400AC610FCF05AE0FC63B683360F12105A8B7
:101DC400FEF74EFB0DF1480EBEE80F00EC46ACE802
:101DD4000F00DEF80030CCF800306F46AC610FCF56
:101DE40005AE0FC63B683360702105A8FEF738FBCB
:101DF4000DF1480EBEE80F00EC46ACE80F00DEF82B
:101E04000030CCF800306F46AC610FCF05AE0FC682
:101E14003B683360702105A8FEF722FB0DF1480EE4
:101E2400BEE80F00EC46ACE80F00DEF80030CCF85A
:101E340000306F46AC610FCF05AE0FC63B68336010
:101E4400182105A8FEF70CFB0DF1480EBEE80F00A3
:101E5400EC46ACE80F00DEF80030CCF800306F46FA
:101E6400AC610FCF05AE0FC63B683360132105A8E4
:101E7400FEF7F6FA0DF1480EBEE80F00EC46ACE8AA
:101E84000F00DEF80030CCF800306F46AC610FCFA5
:101E940005AE0FC63B683360712105A8FEF7E0FA72
:101EA4000DF1480EBEE80F00EC46ACE80F00DEF87A
:101EB4000030CCF800306F46AC610FCF05AE0FC6D2
:101EC4003B683360F32105A8FEF7CAFA0DF1480E0A
:101ED400BEE80F00EC46ACE80F00DEF80030CCF8AA
:101EE40000306F46AC610FCF05AE0FC63B68336060
:101EF400702105A8FEF7B4FA0DF1480EBEE80F00F4
:101F0400EC46ACE80F00DEF80030CCF800306F4649
:101F1400AC610FCF05AE0FC63B683360702105A8D6
:101F2400FEF79EFA0DF1480EBEE80F00EC46ACE851
:101F34000F00DEF80030CCF800306F46C5F818808A
:101F44000FCF05AE0FC63B683360642105A8FEF7CA
:101F540087FA0DF1480EBEE80F00EC46ACE80F001E
:101F6400DEF80030CCF800306F46AC610FCF05AE20
:101F74000FC63B683360282105A8FEF771FA0DF1FE
:101F8400480EBEE80F00EC46ACE80F00DEF8003067
:101F9400CCF800306F46AC610FCF05AE0FC63B687E
:101FA4003360292105A8FEF75BFA0DF1480EBEE85F
:101FB4000F00EC46ACE80F00DEF80030CCF800303F
:101FC4006F46AC610FCF05AE0FC63B683360F1219D
:101FD40005A8FEF745FA0DF1480EBEE80F00EC46E1
:101FE400ACE80F00DEF80030CCF800306F46AC618E
:101FF4000FCF05AE0FC63B683360012105A8FEF77D
:102004002FFA0DF1480EBEE80F00EC46ACE80F00C5
:10201400DEF80030CCF800306F46AC610FCF05AE6F
:102024000FC63B683360F12105A8FEF719FA0DF1DC
:10203400480EBEE80F00EC46ACE80F00DEF80030B6
:10204400CCF800306F46AC610FCF05AE0FC63B68CD
:102054003360002105A8FEF703FA0DF1480EBEE82F
:102064000F00EC46ACE80F00DEF80030CCF800308E
:102074006F46AC610FCF05AE0FC63B6833600721D6
:1020840005A8FEF7EDF90DF1480EBEE80F00EC4689
:10209400ACE80F00DEF80030CCF800306F46C5F82D
:1020A40018800FCF05AE0FC63B683360662105A8C4
:1020B400FEF7D6F90DF1480EBEE80F00EC46ACE889
:1020C4000F00DEF80030CCF800306F46AC610FCF63
:1020D40005AE0FC63B6833603C2105A8FEF7C0F986
:1020E4000DF1480EBEE80F00EC46ACE80F00DEF838
:1020F4000030CCF800306F46AC610FCF05AE0FC690
:102104003B683360002105A8FEF7AAF90DF1480EDB
:10211400BEE80F00EC46ACE80F00DEF80030CCF867
:1021240000306F46AC610FCF05AE0FC63B6833601D
:10213400CD2105A8FEF794F90DF1480EBEE80F0075
:10214400EC46ACE80F00DEF80030CCF800306F4607
:10215400AC610FCF05AE0FC63B683360672105A89D
:10216400FEF77EF90DF1480EBEE80F00EC46ACE830
:102174000F00DEF80030CCF800306F46AC610FCFB2
:1021840005AE0FC63B683360452105A8FEF768F924
:102194000DF1480EBEE80F00EC46ACE80F00DEF887
:1021A4000030CCF800306F46AC610FCF05AE0FC6DF
:1021B4003B683360452105A8FEF752F90DF1480E3E
:1021C400BEE80F00EC46ACE80F00DEF80030CCF8B7
:1021D40000306F46AC610FCF05AE0FC63B6833606D
:1021E400214605A8FEF73CF90DF1480EBEE80F00A4
:1021F400EC46ACE80F00DEF80030CCF800306F4657
:10220400AC610FCF05AE0FC63B683360002105A853
:10221400FEF726F90DF1480EBEE80F00EC46ACE8D7
:102224000F00DEF80030CCF800306F46AC610FCF01
:1022340005AE0FC63B683360002105A8FEF710F910
:102244000DF1480EBEE80F00EC46ACE80F00DEF8D6
:102254000030CCF800306F46AC610FCF05AE0FC62E
:102264003B683360002105A8FEF7FAF80DF1480E2B
:10227400BEE80F00EC46ACE80F00DEF80030CCF806
:1022840000306F46C5F818800FCF05AE0FC63B6807
:102294003360672105A8FEF7E3F80DF1480EBEE8A8
:1022A4000F00EC46ACE80F00DEF80030CCF800304C
:1022B4006F46AC610FCF05AE0FC63B68336000219B
:1022C40005A8FEF7CDF80DF1480EBEE80F00EC4668
:1022D400ACE80F00DEF80030CCF800306F46AC619B
:1022E4000FCF05AE0FC63B6833603C2105A8FEF74F
:1022F400B7F80DF1480EBEE80F00EC46ACE80F004D
:10230400DEF80030CCF800306F46AC610FCF05AE7C
:102314000FC63B683360002105A8FEF7A1F80DF154
:10232400480EBEE80F00EC46ACE80F00DEF80030C3
:10233400CCF800306F46AC610FCF05AE0FC63B68DA
:102344003360002105A8FEF78BF80DF1480EBEE8B6
:102354000F00EC46ACE80F00DEF80030CCF800309B
:102364006F46AC610FCF05AE0FC63B6833600021EA
:1023740005A8FEF775F80DF1480EBEE80F00EC460F
:10238400ACE80F00DEF80030CCF800306F46AC61EA
:102394000FCF05AE0FC63B683360012105A8FEF7D9
:1023A4005FF80DF1480EBEE80F00EC46ACE80F00F4
:1023B400DEF80030CCF800306F46AC610FCF05AECC
:1023C4000FC63B683360542105A8FEF749F80DF1A8
:1023D400480EBEE80F00EC46ACE80F00DEF8003013
:1023E400CCF800306F46AC610FCF05AE0FC63B682A
:1023F4003360214605A8FEF733F80DF1480EBEE818
:102404000F00EC46ACE80F00DEF80030CCF80030EA
:102414006F46AC610FCF05AE0FC63B683360322107
:1024240005A8FEF71DF80DF1480EBEE80F00EC46B6
:10243400ACE80F00DEF80030CCF800306F46AC6139
:102444000FCF05AE0FC63B683360982105A80DF188
:102454004808FEF705F8B8E80F00EE46AEE80F00AE
:102464004FF48017D8F80030CEF80030EC46AF6156
:10247400BCE80F0005AE0FC6DCF8003033607421F1
:1024840005A80DF14808FDF7EBFFB8E80F00EE468C
:10249400AEE80F00D8F80030CEF80030EC46AC615E
:1024A400BCE80F0005AE0FC6DCF8003033602146EF
:1024B40005A80DF14808FDF7D3FFB8E80F00EE4674
:1024C400AEE80F00D8F80030CEF80030EC46AC612E
:1024D400BCE80F0005AE0FC6DCF800303360852180
:1024E40005A80DF14808FDF7BBFFB8E80F00EE465C
:1024F400AEE80F00D8F80030CEF80030EC46AC61FE
:10250400BCE80F0005AE0FC6DCF800303360802154
:1025140005A80DF14808FDF7A3FFB8E80F00EE4643
:10252400AEE80F00D8F80030CEF80030EC46AC61CD
:10253400BCE80F0005AE0FC6DCF8003033600021A4
:1025440005A80DF14808FDF78BFFB8E80F00EE462B
:10255400AEE80F00D8F80030CEF80030EC46AC619D
:10256400BCE80F0005AE0FC6DCF800303360002174
:1025740005A80DF14808FDF773FFB8E80F00EE4613
:10258400AEE80F00D8F80030CEF80030EC46AC616D
:10259400BCE80F0005AE0FC6DCF8003033604E21F6
:1025A40005A80DF14808FDF75BFFB8E80F00EE46FB
:1025B400AEE80F00D8F80030CEF80030EC46AC613D
:1025C400BCE80F0005AE0FC6DCF800303360002114
:1025D40005A80DF14808FDF743FFB8E80F00EE46E3
:1025E400AEE80F00D8F80030CEF80030EC46AF610A
:1025F400BCE80F0005AE0FC6DCF80030336098214C
:1026040005A80DF14808FDF72BFFB8E80F00EE46CA
:10261400AEE80F00D8F80030CEF80030EC46AC61DC
:10262400BCE80F0005AE0FC6DCF8003033603E2175
:1026340005A80DF14808FDF713FFB8E80F00EE46B2
:10264400AEE80F00D8F80030CEF80030EC46AC61AC
:10265400BCE80F0005AE0FC6DCF80030336007217C
:1026640005A80DF14808FDF7FBFEB8E80F00EE469B
:10267400AEE80F00D8F80030CEF80030EC46AF6179
:10268400BCE80F0005AE0FC6DCF80030336036211D
:1026940005A80DF14808FDF7E3FEB8E80F00EE4683
:1026A400AEE80F00D8F80030CEF80030EC46AC614C
:1026B400BCE80F0005AE0FC6DCF800303360002123
:1026C40005A8FDF7CDFE0DF1480EBEE80F00EC465F
:1026D400ACE80F00DEF80030CCF800306E46AF6195
:1026E4000FCE05AC0FC433682360342105A8FDF771
:1026F400B7FE0DF1480EBEE80F00EC46ACE80F0043
:10270400DEF80030CCF800306E46AF610FCE05AC79
:102714000FC433682360212105A8FDF7A1FE0DF144
:10272400480EBEE80F00EC46ACE80F00DEF80030BF
:10273400CCF800306E46AF610FCE05AC0FC43368E1
:102744002360112105A8FDF78BFE7820FDF70CFE10
:102754000DF1480EBEE80F00EC46ACE80F00DEF8C1
:102764000030CCF800306E46AF610FCE05AC0FC41C
:1027740033682360292105A8FDF772FE14200BB0ED
:10278400BDE8F04304B0FDF7EFBD00BF84B030B541
:1027940083B006AC84E80F002046FDF759FE0325FC
:1027A40000240123CDE900451A460D480421FDF714
:1027B40079FD0123CDE900451A4609480521FDF7B5
:1027C40071FD074A1023936106AB0FCB0A9C00945A
:1027D400FDF7F6FE03B0BDE8304004B0704700BF1B
:1027E4000000024084B02DE9F04786B00EAC84E8C6
:1027F4000F00664CBDF84CA0BDF85070BDF8549065
:10280400BDF858604FF48015A5610DF1380EBEE88F
:102814000F000DF1040CACE80F00DEF80030CCF82A
:1028240000304FF010082A2101A8FDF719FEC4F862
:1028340018800DF1380EBEE80F000DF1040CACE861
:102844000F00DEF80030CCF800304FEA1A2101A85E
:10285400FDF706FE0DF1380EBEE80F000DF1040C75
:10286400ACE80F00DEF80030CCF800305FFA8AF1F3
:1028740001A8FDF7F5FD0DF1380EBEE80F000DF1CE
:10288400040CACE80F00DEF80030CCF800304FEA5E
:10289400192101A8FDF7E4FD0DF1380EBEE80F0083
:1028A4000DF1040CACE80F00DEF80030CCF8003079
:1028B4005FFA89F101A8FDF7D3FDA5610DF1380E8A
:1028C400BEE80F000DF1040CACE80F00DEF8003098
:1028D400CCF800302B2101A8FDF7C2FDC4F8188004
:1028E4000DF1380EBEE80F000DF1040CACE80F003A
:1028F400DEF80030CCF80030390A01A8FDF7B0FD4D
:102904000DF1380EBEE80F000DF1040CACE80F0019
:10291400DEF80030CCF80030F9B201A8FDF7A0FDD4
:102924000DF1380EBEE80F000DF1040CACE80F00F9
:10293400DEF80030CCF80030310A01A8FDF790FD34
:102944000DF1380EBEE80F000DF1040CACE80F00D9
:10295400DEF80030CCF80030F1B201A8FDF780FDBC
:10296400A5610DF1380EBEE80F000DF1040CACE8C2
:102974000F00DEF80030CCF800302C2101A8FDF760
:102984006FFD06B0BDE8F04704B070470000024098
:1029940084B02DE9F04F91B01AAC84E80F00BDF972
:1029A4008880BDF97C30BDF98020BDF984A0BDF8D4
:1029B4008CB09BB292B208F1FF36CDE901323244B9
:1029C40092B204920AF1FF3213449BB203931E9B0A
:1029D400009394E80F00FFF705FF864B1022B8F12F
:1029E400000F9A6140F3EC800AF00703BAF1070F75
:1029F400D4BF55461D46BAF1070F40F3EC805FFA89
:102A04008BF70BAC4FEA1B2B5FFA8BF82B46D146A6
:102A140045469846CDE90789CA4609960DF16809E5
:102A2400B9E80F00A046A8E80F00D9F80030C8F8AC
:102A3400003039462046FDF713FD29462046FDF7B0
:102A44000FFD0DF1680EBEE80F00A446ACE80F00C0
:102A5400D9F80030C8F8003039462046FDF700FDAB
:102A640029462046FDF7FCFC0DF1680EBEE80F0078
:102A7400A446ACE80F00D9F80030C8F80030394655
:102A84002046FDF7EDFC29462046FDF7E9FC0DF153
:102A9400680EBEE80F00A446ACE80F00D9F8003079
:102AA400C8F8003039462046FDF7DAFC29462046AE
:102AB400FDF7D6FC0DF1680EBEE80F00A446ACE8A5
:102AC4000F00D9F80030C8F8003039462046FDF729
:102AD400C7FC29462046FDF7C3FC0DF1680EBEE88D
:102AE4000F00A446ACE80F00D9F80030C8F8003055
:102AF40039462046FDF7B4FC29462046FDF7B0FCD4
:102B04000DF1680EBEE80F00A446ACE80F00D9F83A
:102B14000030C8F8003039462046FDF7A1FC2946AC
:102B24002046FDF79DFC0DF1680EBEE80F00D9F8B4
:102B34000060A446ACE80F0039462046C8F800609F
:102B4400FDF78EFCAAF1080A29462046FDF788FC09
:102B54001FFA8AF3072B0FFA8AFA3FF65FAFDDE913
:102B64000789099EB8F1000F2FD04546CA465FFA7F
:102B74008BF9A8460DF1680EBEE80F00A446ACE838
:102B84000F00DEF80030CCF8003039462046FDF75F
:102B940067FC08F1FF3849462046FDF761FC1FFA3F
:102BA40088F30FFA88F8002BE4D1B3B20FFA86F851
:102BB40033B1BAF1070F08F1FF363FF725AFD8E775
:102BC40011B0BDE8F04F04B07047B3B236B2002B79
:102BD400F6D0013E1EE7002D05DD5FFA8BF70BAC46
:102BE4004FEA1B2BC3E7B3B236B2002BE8D0013E49
:102BF40001E700BF00000240FEE700BFFEE700BFA0
:102C0400FEE700BFFEE700BFFEE700BF704700BF5E
:102C1400704700BF704700BF00F032BB002800F0CF
:102C24006A812DE9F0410368DD0782B004462FD59F
:102C34009F498A6802F00C02042A00F0EF808A6837
:102C440002F00C02082A00F0E5806368B3F5803FC7
:102C540000F0EE80B3F5A02F00F07981944D2A683E
:102C640022F480322A602A6822F480222A60002B0F
:102C740040F0E38000F010FB064605E000F00CFB9A
:102C8400801B642800F203812B689F03F6D4236819
:102C94009D0728D5864A916811F00C0F00F09280A8
:102CA400916801F00C01082900F08880E368002B8A
:102CB40000F010817F4B7E4E01221A6000F0ECFA86
:102CC400054605E000F0E8FA401B022800F2DF8028
:102CD40033689F07F6D53368226923F0F80343EA83
:102CE400C203336023681A0753D45D0730D5704A92
:102CF400136C13F0805300F0818000256E4E33680E
:102D0400D80540F1B480A368012B00F0C480052BE2
:102D140000F02D81664E326F22F001023267326F6D
:102D240022F004023267002B40F0BA8000F0B4FABB
:102D340041F28838074605E000F0AEFAC01B404572
:102D440000F2A580336F9B07F6D4002D40F0098173
:102D5400A369D3B1564DAA6802F00C02082A00F008
:102D6400CC80022B534B4FF000021A6600F009810D
:102D740000F092FA044605E000F08EFA001B0228E7
:102D840000F285802B689B01F6D4002002B0BDE8D8
:102D9400F08163690BB3474B454E0122C3F8802E83
:102DA40000F07AFA054604E000F076FA401B0228A7
:102DB4006DD8736F9B07F7D5236896E75268510265
:102DC4003FF574AF3A4A1268920744D5E268012A83
:102DD40041D0012002B0BDE8F081364A344EC2F839
:102DE400803E00F059FA054604E000F055FA401B15
:102DF40002284CD8736F9F07F7D4DDE70193136C57
:102E040043F080531364136C03F080530193019BCC
:102E1400012573E74A6851027FF517AF244A126807
:102E240092037FF535AF6268002A7FF431AFD0E7B3
:102E34001F4A136843F48033136000F02DFA1C4ECC
:102E4400054604E000F028FA401B64281FD83368C4
:102E54009B03F7D51BE7164920690A6822F0F8029C
:102E640042EAC0020A601A077FF53FAF91E7336870
:102E740043F48073336000F00FFA07463368D905D2
:102E84003FF541AF00F008FAC01B0228F6D9032031
:102E940002B0BDE8F081064A136F43F001031367E3
:102EA40000F0FAF9024F064641F288380BE000BF01
:102EB40000380240000047420070004000F0ECF986
:102EC400801B4045E3D83B6F9A07F7D5002D3FF4AC
:102ED4003FAF46E0424A434E136000F0DDF9054639
:102EE40004E000F0D9F9401B0228D0D833689907D0
:102EF400F7D42368F7E601207047012B3FF469AF4C
:102F04006B68E26903F4800191427FF462AF226A44
:102F140003F03F0191427FF45CAF616A47F6C072EF
:102F24001A40B2EB811F7FF454AFA26A520803F433
:102F34004031013AB1EB024F7FF44BAFE26A03F048
:102F44007063B3EB026F14BF012000201EE7254B12
:102F54001A6842F480221A601A6842F480321A60B5
:102F64006BE7204A136C23F080531364F0E61D4B87
:102F74001A6F42F004021A671A6F42F001021A67CC
:102F84008EE700F089F9064605E000F085F9801B1C
:102F940002283FF67CAF2B689901F6D4D4E90731B7
:102FA400626A0B4343EA8213D4E90A2052080C49AB
:102FB40043EA0063013A43EA024301226B600A6672
:102FC40000F06AF9074D044605E000F065F9001BBE
:102FD40002283FF65CAF2B689A01F6D5D5E600BF10
:102FE4000000474200380240164908B58B6803F0D8
:102FF4000C03042B1BD0082B01D0134808BD4A68CE
:103004004B68496813F4800302F03F0211D10E4863
:10301400C1F38811A1FB0001FDF7BAF8094B5B6805
:10302400C3F3014301335B00B0FBF3F008BD074871
:1030340008BD0648C1F388110023A1FB0001FDF778
:10304400A7F8EBE7003802400024F40040787D0143
:10305400002800F08780484A136803F007038B4276
:103064002DE9F0410D46044609D2CBB21370136822
:1030740003F007038B4202D00120BDE8F0812368EE
:10308400980714D5590704D53C498A6842F4E0529C
:103094008A601A0704D539498A6842F460428A6012
:1030A4003649A0688A6822F0F00202438A60DF078A
:1030B40021D56268012A57D0931E012B2F4B1B6820
:1030C4004DD99907D8D52D4EB36823F00303134384
:1030D400B36000F0E1F841F28838074604E000F0FC
:1030E400DBF8C01B404544D8B368626803F00C03A6
:1030F400B3EB820FF3D1204A136803F00703AB420A
:1031040006D9EBB21370136803F00703AB42B3D1D3
:1031140023685A0706D51949E0688A6822F4E05200
:1031240002438A601B0707D5144A2169936823F474
:10313400604343EAC1039360FFF756FF0F4A104C04
:1031440092681049C2F303120346A25C0E48D340AE
:1031540000680B6000F070F80020BDE8F081980171
:10316400B1D489E701207047044B1B689E03AAD49D
:1031740082E7032081E700BF003C024000380240A0
:103184003038000808000020040000201B4BDB68D6
:10319400C3F3022300B5C3F1070EBEF1040F03F11C
:1031A400040C28BF4FF0040EBCF1060F1CD9A3F188
:1031B400030C4FF0FF3303FA0CF322EA03024FF03F
:1031C400FF3303FA0EF321EA030303FA0CF3134368
:1031D4001B010028DBB20ADB00F1604000F561400E
:1031E40080F800335DF804FB00229446E7E7044AC4
:1031F40000F00F00024413765DF804FB00ED00E0DC
:10320400FCEC00E00138B0F1807F01D3012070476D
:1032140010B44FF0E023074C58614FF0F00C84F8E1
:1032240023C00022072110469A615DF8044B1961FE
:10323400704700BF00ED00E038B50E4A0E4B12781F
:10324400054618684FF47A73B3FBF2F3B0FBF3F05E
:10325400FFF7D8FF08B90F2D01D9012038BD044666
:10326400024629464FF0FF30FFF790FF034B2046FC
:103274001D6038BD0000002008000020040000206C
:10328400034A044B11681B780B441360704700BF5A
:103294002C00002000000020014B1868704700BF7C
:1032A4002C000020034AD2F8883043F47003C2F89B
:1032B4008830704700ED00E010B5002394B0CDE9EC
:1032C4000B33CDE90933CDE90333CDE90533214A85
:1032D40001930D930793116C1F4841F080511164C1
:1032E400126C02F080520192019A0293026822F455
:1032F400404242F40042026002680F9302F44042EA
:10330400102301210292CDE90B1308223323CDE9C6
:103314001023029802240222042308A808940E947D
:10332400CDE91223FFF77AFC08B172B6FEE70F214C
:103334000346CDE903144FF4805203A82146CDE996
:1033440005320793FFF784FE08B172B6FEE714B0A6
:1033540010BD00BF003802400070004030B58DB091
:10336400FCF750FF0025FFF7A7FF07ACFCF7DAFFD7
:10337400032202231949009320460123CDE90125A4
:10338400CDE903552A46FDF709F82046FDF71EF856
:10339400012206211248FCF75BFF6420FCF7E4FFDE
:1033A4000B9B009394E80F00FFF7F0F9F0234FF61E
:1033B400FF72CDE90432CDE90253019594E80F0080
:1033C4000B9C0094FFF7E4FA6420FCF7CDFF044A59
:1033D400536943F040035361FAE700BF0000024021
:1033E40000040240DFF834D00D480E490E4A002391
:1033F40002E0D458C4500433C4188C42F9D30B4AA5
:103404000B4C002301E013600432A242FBD3FFF70C
:1034140049FF00F017F8FFF7A1FF704700000120F3
:103424000000002010000020543800081000002084
:10343400C8010020FEE70000002301461A46184692
:1034440000F040B870B50F4B0F4DAB42A3EB05062F
:1034540007D0B610002455F8043B01349847A6421F
:10346400F9D800F0D7F9094D094B5E1BAB424FEA7E
:10347400A60606D0002455F8043B01349847A6421A
:10348400F9D870BD483800084838000848380008A2
:103494005038000838B5074D074C2C1BA41005D034
:1034A400013C55F8043D9847002CF9D1BDE838405B
:1034B40000F0B6B95438000850380008704700BF0F
:1034C400704700BF2DE9F8431B4D0646286898460F
:1034D4000F469146FFF7F2FF184B1C681CB328688F
:1034E40065681F2D22DC4EB96B1C0235636044F8FD
:1034F4002570FFF7E5FF0020BDE8F88304EB8501A4
:103504000123C1F88890D4F88821AB401A43022ED5
:10351400C4F88821C1F80881E6D1D4F88C211A4373
:10352400C4F88C21E0E7064C1C60D8E7FFF7C8FF1D
:103534004FF0FF30E0E700BF0C000020C401002082
:1035440034000020024B13B10248FFF775BF7047E7
:1035540000000000993400082DE9F0478C468E469F
:10356400089E154604461946002B40F0D08072454B
:1035740047D9B2FA82F74FB1C7F120030EFA07FC1C
:1035840020FA03F3BD4043EA0C0CBC404FEA154E4D
:10359400A8B2BCFBFEF8230C0EFB18CC08FB00F908
:1035A40043EA0C43994528D9EB1808F1FF3204D2B9
:1035B400994502D9A8F102022B44A3EB0903A4B252
:1035C400B3FBFEFC0EFB1C330CFB00F044EA03448B
:1035D400A04214D92C190CF1FF3304D2A04202D911
:1035E400ACF102032C44241A43EA02401EB1FC400D
:1035F400002334607360BDE8F0874246DDE763462C
:10360400F1E7002A79D0B2FA82F3002B3FD01946B1
:10361400C1F1200302FA01F52EFA03F20EFA01FEBB
:1036240020FA03F343EA0E034FEA154E00FA01F4BD
:10363400B2FBFEFCAFB20EFB1C201A0C0CFB07F80D
:1036440042EA004290455AD9AA180CF1FF3004D23C
:10365400904502D9ACF102002A44A2EB08029BB2C5
:10366400B2FBFEFC0EFB1C220CFB07F743EA0243F1
:103674009F4246D9EB180CF1FF3204D29F4202D983
:10368400ACF102022B44DB1B42EA004202E0AEEB47
:10369400020301224FEA154EAFB2B3FBFEFC200C2D
:1036A4000EFB1C330CFB07F840EA034398452AD968
:1036B400EB180CF1FF3004D2984502D9ACF10200AA
:1036C4002B44A3EB0803A4B2B3FBFEFC0EFB1C3398
:1036D4000CFB07F744EA0344A74216D92C190CF152
:1036E400FF3304D2A74202D9ACF102032C44E41BF9
:1036F40043EA00400F46114678E71F2188E76046F9
:10370400ABE76246BFE76046DBE76346EFE7734536
:1037140006D916B9002108466DE7C6E9000EF9E797
:10372400B3FA83F787B9734501D3824207D8841A61
:103734006EEB030301209C461EB900215BE738466B
:10374400FAE7C6E9004CF8E7C7F1200CBB4022FABF
:103754000CF51D4320FA0CF12EFA0CF30EFA07FEB9
:1037640041EA0E014FEA154900FA07F4B3FBF9F8F0
:103774001FFA85FE09FB18300B0C08FB0EFA43EA0E
:1037840000439A4502FA07F240D9EB1808F1FF30DA
:1037940004D29A4502D9A8F102002B44A3EB0A03F0
:1037A40089B2B3FBF9F809FB183308FB0EFE41EAB2
:1037B40003418E452CD9691808F1FF3304D28E4594
:1037C40002D9A8F10203294443EA0040A0FB02986D
:1037D400A1EB0E014145CE46434602D306D14C45EA
:1037E40004D2B9EB020E68EB05030138002EA4D015
:1037F400B4EB0E0261EB030101FA0CFC22FA07F3AD
:103804004CEA0303F940C6E9003196E74046C5E7B0
:103814004346D9E7F8B500BFF8BC08BC9E467047DC
:0C382400F8B500BFF8BC08BC9E46704719
:103830000000000000000000010203040607080960
:083840001CFDFF7F01000000E8
:0838480049350008ED010008FC
:04385000C9010008A2
:1038540001000000100000000024F40030000020EB
:04000005080033E9D3
:00000001FF
