:020000040800F2
:1000000000000120C1060008BD040008C10400086A
:10001000C5040008C9040008CD0400080000000061
:10002000000000000000000000000000D1040008F3
:10003000D504000800000000D9040008DD04000811
:100040001107000811070008110700081107000830
:100050001107000811070008110700081107000820
:100060001107000811070008110700081107000810
:100070001107000811070008110700081107000800
:100080001107000811070008110700080000000010
:100090000000000000000000000000001107000840
:1000A00011070008110700081107000811070008D0
:1000B00011070008110700081107000811070008C0
:1000C00011070008110700081107000811070008B0
:1000D00011070008110700081107000800000000C0
:1000E00011070008110700081107000800000000B0
:1000F00000000000000000000000000011070008E0
:10010000000000001107000811070008110700088F
:1001100000000000000000000000000000000000DF
:10012000110700081107000811070008110700084F
:10013000110700080000000000000000000000009F
:10014000000000000000000000000000110700088F
:10015000110700081107000811070008110700081F
:10016000110700081107000800000000000000004F
:10017000000000000000000000000000000000007F
:10018000000000001107000800000000000000004F
:04019000110700084B
:1001940010B5054C237833B9044B13B10448AFF3BD
:1001A40000800123237010BD0C000020000000001B
:1001B4005C07000808B5034B1BB103490348AFF3C0
:1001C400008008BD00000000100000205C0700084B
:1001D40000B589B000F02AFA642400F021F800F098
:1001E4009FF80A2308210B22CDE90021CDE902431F
:1001F4000A49092204A800F0C9F804A800F0DCF8B0
:10020400204600F03FFA04A800F016F9AA2104A839
:1002140000F024F904A800F019F9F4E70000024002
:1002240086B0204B00220092196B41F00101196342
:10023400196B01F00101009100990192196B41F0D1
:1002440002011963196B01F00201019101990292F3
:10025400196B41F004011963196B01F00401029157
:1002640002990392196B41F008011963196B01F0AB
:100274000801039103990492196B41F01001196369
:10028400196B01F010010491049905921A6B42F064
:1002940080021A631B6B03F080030593059B06B071
:1002A400704700BF00380240F0B59DF814C09DF8B7
:1002B40018E008B10F2900D9F0BD032AFCD8022B9D
:1002C400FAD8BCF1010FF7D80568032404FA01F643
:1002D40025EA0605056007684D00AA403A43026016
:1002E400C268AC4022EA0402C260C268AB40134355
:1002F400C360436801228A4023EA020343604368DF
:100304000CFA01FC4CEA03034360836823EA060306
:10031400836083680EFA05F51D438560F0BD00BF58
:1003240010B483B072B600220D490192086C40F0FB
:1003340001000864096C4FF0804301F00101019150
:100344004FF0FF300121019C1A605A609A62D86212
:10035400DA605961196062B603B05DF8044B704706
:1003640000380240074B08491B684FF08042A1FB4C
:1003740003139B0C516A03FB00F0536A5B1A984207
:10038400FBD870470800002083DE1B430160002176
:1003940062F3070163F30F219DF8003063F3174103
:1003A4009DF8043063F31F61DDE902325B08C0E9A4
:1003B4000113C260704700BF30B5044683B0002506
:1003C400017900682B46CDE900550122FFF76CFF47
:1003D400A17920682B46CDE900550122FFF764FF7F
:1003E400E17920682B46CDE900550122FFF75CFF37
:1003F400617920682B46CDE900552A46FFF754FF62
:1004040023792268E068012505FA03F39361FFF775
:10041400A9FFA3792268E06805FA03F39361FFF763
:10042400A1FFE2792368A06895409D6103B0BDE80F
:100434003040FFF797BF00BF82790168C06801238D
:10044400103293408B61FFF78DBF00BF8179026842
:10045400C06801238B409361FFF784BFF8B504465D
:100464000D460826012723792168E06803F110026C
:1004740015F0800F07FA02F207FA03F314BF8B6139
:100484008A61FFF76FFFE3792268A06807FA03F334
:100494009361FFF767FFE3792268A068103307FAD6
:1004A40003F39361013EFFF75DFF6D0016F0FF0655
:1004B400EDB2D8D13046F8BDFEE700BFFEE700BF7D
:1004C400FEE700BFFEE700BFFEE700BF704700BFC6
:1004D400704700BF704700BF00F0C2B882B00C4B39
:1004E400002100915A6C42F480425A645A6C02F41E
:1004F40080420092009A01911A6C42F080521A6470
:100504001B6C03F080530193019B02B0704700BF42
:10051400003802400749CA6803024FF6FF0003F49B
:10052400E0630240134343F0BF6343F40033CB6002
:10053400704700BF00ED00E01B4BDB68C3F30223F0
:1005440000B5C3F1070EBEF1040F03F1040C28BF7C
:100554004FF0040EBCF1060F1CD9A3F1030C4FF0AD
:10056400FF3303FA0CF322EA03024FF0FF3303FADA
:100574000EF321EA030303FA0CF313431B010028CF
:10058400DBB20ADB00F1604000F5614080F8003323
:100594005DF804FB00229446E7E7044A00F00F00EC
:1005A400024413765DF804FB00ED00E0FCEC00E08F
:1005B4000138B0F1807F01D30120704710B44FF0AF
:1005C400E023074C58614FF0F00C84F823C000225C
:1005D400072110469A615DF8044B1961704700BF0A
:1005E40000ED00E038B50E4A0E4B12780546186847
:1005F4004FF47A73B3FBF2F3B0FBF3F0FFF7D8FFD9
:1006040008B90F2D01D9012038BD044602462946F8
:100614004FF0FF30FFF790FF034B20461D6038BDBD
:1006240000000020080000200400002008B50B4B47
:100634001A6842F400721A601A6842F480621A60FE
:100644001A6842F480721A600320FFF763FF0F20D8
:10065400FFF7C8FFFFF742FF002008BD003C02403F
:10066400034A044B11681B780B441360704700BFA6
:100674002800002000000020014B1868704700BFCC
:100684002800002038B50446FFF7F6FF631C054632
:1006940002D0044B1B781C44FFF7EEFF401BA04222
:1006A400FAD338BD00000020034AD2F8883043F45E
:1006B4007003C2F88830704700ED00E0DFF834D0F2
:1006C4000D480E490E4A002302E0D458C4500433A6
:1006D400C4188C42F9D30B4A0B4C002301E013607D
:1006E4000432A242FBD3FFF7DFFF00F011F8FFF75B
:1006F4006FFD704700000120000000200C00002066
:100704007C0700080C0000202C000020FEE70000FD
:1007140070B50D4D0D4C641BA4100026A64209D1E2
:100724000B4D0C4C00F018F8641BA4100026A642D4
:1007340005D170BD55F8043B98470136EEE755F8EE
:10074400043B98470136F2E7740700087407000871
:100754007407000878070008F8B500BFF8BC08BCA7
:100764009E467047F8B500BFF8BC08BC9E4670476B
:04077400B9010008BF
:0407780095010008DF
:0C077C0001000000100000000024F40048
:04000005080006C128
:00000001FF
